:0400000017EF00F006
:10000800B4B05BEF00F0B8B0B890C06B06681000F1
:10001800000E056E066E050E046EAFA016EF00F01A
:100028002BEF00F0100061ED00F067ED00F07FEDC0
:1000380000F089ED00F0A0EC00F0A0EC00F0C38621
:10004800A0EC00F0A0EC00F0C3961FEF00F0AF901A
:100058000A0E036E000E026E32EF00F00401000E6D
:10006800FB6F000EFA6F02444FEC00F006B216EF79
:1000780000F005B216EF00F0C06E076EA0EC00F0BD
:10008800032E4CEF00F0042E2BEF00F016EF00F0DB
:10009800022A32EF00F0F926810C420C240C180CCD
:1000A800000C180C240C420C810C000C1200B490AB
:1000B8000750C06F05680BEF00F00001600EAD6FD0
:1000C800020EB16F12000401D397C387286BCB9738
:1000D800D395CB8529850401CF990899C7890989C2
:1000E8000401CE97006BC68701870401D069C06BF5
:1000F800106BC86B12000201030E3E6F02010C0E5A
:100108003F6F02012A0E406F1200D68A03016391E5
:1001180068816C81D690AF909F80D692B490A4806D
:10012800D694B890A880D68ED68C120098EF00F09E
:10013800012E96EF00F01200FA0E016EF90E006E15
:100148000000002EA4EF00F0012EA2EF00F0120034
:020000040030CA
:10000000EC0D27C79FFFFFFFFFFFFFFFFFFFFFFF75
:10001000FFFFFFFFFFFFFFFFFFFFFFFFFFFFFFFFF0
:03002000FFFFFFE0
:00000001FF
